:1000000003C003C003C003C003C003C003C003C0D8
:1000800013C02AC029C028C027C026C025C024C04C
:1000900023C022C021C020C01FC01EC01DC01CC064
:1000A0001BC01AC019C018C00000000000000000EA
:1000B0000000000000000000000000000000000040
:1000C000000000000000000011241FBECFEFD2E0AE
:1000D000DEBFCDBFF1D309C4D3CF009709F4089593
:1000E000E0EAFFE03197F1F70197F7CF807C9B01C1
:1000F000205C3F4FDB01FC01E61BF70BEA0FFB1F07
:10010000459154914D935D93A217B307A1F70895BC
:10011000FC01E07C93E090935700E89507B600FC63
:10012000FDCF0895CF93DF939B01205C3F4FDB0110
:10013000FC01E61BF70BEA0FFB1FCD91DD9141E0BF
:100140000E0140935700E8951124A217B30781F7D9
:1001500025E0FC0120935700E89507B600FCFDCF91
:10016000DF91CF910895CF93DF93CDB7DEB7C05421
:10017000D1090FB6F894DEBF0FBECDBFBE016F5FD1
:100180007F4F90E080E0B2DFFE013196CE018F5BC1
:100190009F4F2FEF3FEF21933193E817F907C9F7EE
:1001A00090E080E0B5DFBE016F5F7F4F90E080E0C0
:1001B000B9DFC05CDF4F0FB6F894DEBF0FBECDBF16
:1001C000DF91CF910895EF92FF920F931F93CF93FA
:1001D000DF93CDB7DEB7C054D1090FB6F894DEBFB8
:1001E0000FBECDBF10E000E045E00E3B140774F0F9
:1001F000C05CDF4F0FB6F894DEBF0FBECDBFDF91FE
:10020000CF911F910F91FF90EF90089530E020E083
:10021000F801E650FD4FE20FF31FC9018E7F48E061
:10022000E83BF407FCF44591549161E070E06C0FF9
:100230007D1F860F971FFC01518340832E5F3F4F28
:100240002034310529F77801F0ECEF1AF5EEFF0ABA
:10025000C7015EDFBE016F5F7F4FC70163DF005CD8
:100260001F4FC2CF41E050E04C0F5D1F840F951F20
:100270004FEF5FEFE0CF0F931F93CF93DF93CDB797
:10028000DEB7C054D1090FB6F894DEBF0FBECDBFA4
:10029000FE013196CE018F5B9F4F8F012FE13DEC28
:1002A00021933193E817F907C9F790E080E030DF38
:1002B000B80190E080E036DFC05CDF4F0FB6F89405
:1002C000DEBF0FBECDBFDF91CF911F910F9108957B
:1002D000CF9384B1836084B92998CAEF81E090E01C
:1002E000FCDE299A81E090E0F8DE2998C150B1F750
:1002F000CF910895F0E0E0E0099417C01A3A400564
:10030000931109021200010100803209040000006B
:100310000000000012011001FF000008D016530772
:10032000050200000001040309041124CFEFD2E00C
:10033000CDBFDEBF21E0A0E0B1E001C01D92AC3234
:10034000B207E1F75AC1DC0180E090E041E050EAF9
:10035000609530E009C02D9182279795879510F020
:1003600084279527305EC8F36F5FA8F38D939D9324
:100370000895C3954A9BE9F74A9B0BC04A9B09C065
:100380004A9B07C04A9B05C04A9B03C04A9B01C0C9
:1003900089C00F92C0910E01DD27CA5EDE4F0F901B
:1003A00065E54A9B03C00F920F90E6CF0F930F9124
:1003B0000F9320E040E10F9109B1067002FB27F98D
:1003C0003F9350E03BE039C0167040642F77012F17
:1003D0005F5F1EC0406819B116702F7752501FC062
:1003E000406409B12F770670D1F15F5F00C023C070
:1003F000406219B12F77167091F15F5F00C025C080
:1004000006701027515012F45D5F000011502795BF
:100410002C3F19B1C8F616700127015027952C3FC3
:10042000C8F64227499309B1067010274F7311503F
:1004300027952C3FA8F64695469519B1167079F088
:100440000127015027952C3F98F66B5A60F33150E5
:1004500009B1B0F600C014E01BBB00271DC03B5023
:100460003195C31BD04014E01BBB0881033CD9F07D
:100470000B34C9F020910C011981110F1213EDCF2B
:10048000093601F10D3211F0013E39F7CAE01BB314
:1004900012FD02C0CA95D9F7009314013F91CBB366
:1004A000C2FD67CF0895209114012223B9F3109162
:1004B0001201112309F534300AF13093120120930F
:1004C0000D011CC0009112010130B4F40AE5309115
:1004D0000F0134FD14C000930F01C1E0D1E013C03F
:1004E000052710E000C000000BB91AC0052710E076
:1004F000221F1DC010E021C04AE502C032ED432F8B
:10050000C4E1D0E032E01AB116605A9A0BB11AB9C0
:1005100056E020E865E320FF05270BB927951795DE
:100520001C3FF0F66695B8F7B1F720FF05270BB929
:10053000279517951C3FD0F62795179517FF052788
:1005400000001C3F0BB9B0F629913A9519F7097FC5
:1005500010911301110FC651D0400BB911F0109337
:100560000C0114E01BBB04601AB1197F402F497FB6
:1005700054E05A95F1F70BB91AB94BB98FCF2FEF59
:10058000B0E8A0E04AE0B093660000008DE79CE090
:100590004A99FECF4A9BFECF01974A99FDCF97FF1C
:1005A00003C0BA1B819501C0BA0FA69541F4A0E41F
:1005B00030F4281718F030916600282FA1E0415040
:1005C00011F73093660000000895F201309791F022
:1005D0002AE342162AE1520619F48091660090E05F
:1005E00021E00C0120935700E8951124CF010296D9
:1005F0002C0108958FE19DECF3CFEAE3FAE1E49159
:10060000EF3F19F0E09366000000A895809160002C
:1006100088618093600010926000529A88EB9BE0A2
:10062000E0E9F1E03197F1F70197D1F752988AE5C7
:1006300080930F018FEF8093000180916D008260A5
:1006400080936D0080916800846080936800509A68
:10065000712C312C512C412CC5EDD4E114E689B11B
:10066000867009F014E6115029F4109213011092CB
:100670000C0185DFDA9BA0C07CDE84E08BBBA895F3
:1006800022E032120CC0E0E4FAE1E054F10983E028
:1006900080935700E8953097C1F7512C412C832D5A
:1006A000803409F08DC0F2013297E0348AE1F80716
:1006B00020F485E080935700E895312C8091120159
:1006C000835087FD2BC090910D019D3229F5883014
:1006D00019F583EC809301018AE580930F018091E5
:1006E0001701807690911801882309F49CC0712C21
:1006F000911173C082E49AE19093110180931001EB
:1007000086E090911E01911105C090911D019817EE
:1007100008F4892F809300011092120180910F013B
:1007200084FF30C0809100018F3F61F1C82F893074
:1007300008F0C8E0982F9C1B909300019091010154
:1007400028E8922790930101882381F0E09110011D
:10075000F0911101A2E0B1E08C2F94919D9331961C
:100760008150D9F7F0931101E09310016C2F82E0D2
:1007700091E0E9DDCC5FCC3019F08FEF8093000180
:10078000C0930F01C30101963C01803B24E0920716
:1007900029F4EDE3FAE1E491EF3FC1F48C7409F43C
:1007A00089C05898DA9B58CF8CE14A9B8CE18150E4
:1007B000E1F784E08BBB50CF219709F050CF5FCF9A
:1007C000843009F07ACFCD2B09F078CF58981AB839
:1007D0001092680010926D008ECD913079F4411422
:1007E000510411F480E08DCF80911B01807C482E54
:1007F00050901C0181E187BFE895F4CF933081F4DC
:100800008091190190911A01E0DE80911B01909175
:100810001C01DBDE842D8F7329F790E4392E71CF14
:100820009F73392EDFCF2091190110920A01911187
:100830000AC010920B012AE031E082E030931101EE
:10084000209310015ECF953029F4209313012AE004
:1008500031E0F4CF9630F1F480911A01813041F407
:100860008AE59AE1909311018093100182E149CFCA
:10087000823019F488E49AE1F5CF833009F0B2CFE1
:100880002111B0CF8CE69AE1909311018093100171
:1008900084E037CF983051F0993019F42093150146
:1008A000D6CF81E09A3099F280E0D1CF25E131E0D6
:1008B00081E0C4CF589A76CF85B115B884B18FEF57
:1008C00084B98AEF90E009DC84B114B88AEF90E033
:1008D00004DCF89448DC77DCCEDCFADC8DE39AE1CA
:0E08E00017DC08DD90E080E00895F894FFCF6B
:040000030000008079
:00000001FF
