:1000000003C003C003C003C003C003C003C003C0D8
:1000800027C000003DC000003BC0000039C0000098
:1000900037C0000035C0000033C0000031C0000090
:1000A0002FC000002DC000002BC0000029C00000A0
:1000B00027C0000025C0000023C0000021C00000B0
:1000C0001FC000001DC000001BC0000019C00000C0
:1000D0000000000000000000000000000000000020
:1000E0000000000000000000000000000000000010
:1000F00011241FBECFEFD2E0DEBFCDBFD0D3E8C307
:10010000BFCF009709F40895E0EAFFE03197F1F7D7
:100110000197F7CF80789B0120583F4FDB01FC010E
:10012000E61BF70BEA0FFB1F459154914D935D932E
:10013000A217B307A1F70895FC01E07893E090932C
:100140005700E89507B600FCFDCF0895CF93DF93E5
:100150009B0120583F4FDB01FC01E61BF70BEA0F28
:10016000FB1FCD91DD9141E00E0140935700E895D2
:100170001124A217B30781F725E0FC012093570053
:10018000E89507B600FCFDCFDF91CF910895CF939E
:10019000DF93CDB7DEB7C058D1090FB6F894DEBFF4
:1001A0000FBECDBFBE016F5F7F4F90E080E0B2DF3A
:1001B000FE013196CE018F579F4F2FEF3FEF2193D6
:1001C0003193E817F907C9F790E080E0B5DFBE0189
:1001D0006F5F7F4F90E080E0B9DFC058DF4F0FB610
:1001E000F894DEBF0FBECDBFDF91CF910895EF929F
:1001F000FF920F931F93CF93DF93CDB7DEB7C05815
:10020000D1090FB6F894DEBF0FBECDBF10E000E0FD
:1002100045E00C37140774F0C058DF4F0FB6F89460
:10022000DEBF0FBECDBFDF91CF911F910F91FF9029
:10023000EF90089530E020E0F801EE5DFC4FE20F12
:10024000F31FC9018E7F48E0EE39F407FCF44591B5
:10025000549161E070E06C0F7D1F860F971FFC01C9
:10026000518340832E5F3F4F2038310529F77801B5
:10027000F0E8EF1AF5ECFF0AC7015EDFBE016F5F21
:100280007F4FC70163DF00581F4FC2CF41E050E0EE
:100290004C0F5D1F840F951F4FEF5FEFE0CF0F9363
:1002A0001F93CF93DF93CDB7DEB7C058D1090FB6F8
:1002B000F894DEBF0FBECDBFFE013196CE018F5741
:1002C0009F4F8F012FE33DED21933193E817F907FD
:1002D000C9F790E080E030DFB80190E080E036DFE1
:1002E000C058DF4F0FB6F894DEBF0FBECDBFDF9111
:1002F000CF911F910F910895CF9384B1836084B9FA
:100300002998CAEF81E090E0FCDE299A81E090E034
:10031000F8DE2998C150B1F7CF910895F0E0E0E000
:10032000099416C000003A7C8005948709021200E7
:1003300001010080320904000000000000001201E9
:100340001001FF000008D01653070502000000014D
:1003500011241FBECFEFD2E0CDBFDEBF21E0A0E071
:10036000B1E001C01D92AC32B207E1F736C1DC0149
:1003700080E090E041E050EA609530E009C02D91C6
:1003800082279795879510F084279527305EC8F3CC
:100390006F5FA8F38D939D930895CF93DF93CC2740
:1003A000C3951B9BE9F71B9B0BC01B9B09C01B9BA9
:1003B00007C01B9B05C01B9B03C01B9B01C089C0C2
:1003C0000F92C0910E01DD27CA5EDE4F0F9065E5EA
:1003D0001B9B03C00F920F90E6CF0F930F910F93CB
:1003E00020E040E10F9103B1087403FB27F93F932C
:1003F00050E03BE039C0187440642F77012F5F5FF5
:100400001EC0406813B118742F7752501FC040644B
:1004100003B12F770874D1F15F5F00C023C0406241
:1004200013B12F77187491F15F5F00C025C0087475
:100430001027515012F45D5F0000115027952C3F9A
:1004400013B1C8F618740127015027952C3FC8F640
:100450004227499303B1087410274F731150279511
:100460002C3FA8F64695469513B1187479F00127EC
:10047000015027952C3F98F66B5A60F3315003B129
:10048000B0F600C012E01BBB00271DC03B503195E9
:10049000C31BD04012E01BBB0881033CE9F00B34C6
:1004A000D9F020910C011981110F1213EDCF0936EB
:1004B00011F10D3211F0013E39F7CAE01BB311FD05
:1004C00002C0CA95D9F7009314013F91CBB3C1FD87
:1004D00067CFDF91CF910895209114012223A9F3D2
:1004E00010911201112309F534300AF130931201F1
:1004F00020930D011CC0009112010130B4F40AE5F3
:1005000030910F0134FD14C000930F01C1E0D1E020
:1005100013C0052710E000C0000005B91AC0052768
:1005200010E0221F1DC010E021C04AE502C032EDDC
:10053000432FC4E1D0E032E014B118642B9A05B126
:1005400014B958E420E865E320FF052705B927958D
:1005500017951C3FF0F66695B8F7B1F720FF052711
:1005600005B9279517951C3FD0F62795179517FFC6
:10057000052700001C3F05B9B0F629913A9519F7F7
:10058000077B10911301110FC651D04005B911F02E
:1005900010930C0112E01BBB086014B1177B402FB5
:1005A000477B54E05A95F1F705B914B945B98DCF99
:1005B000F201309779F0E230F10511F480E49DE129
:1005C00021E00C0120935700E8951124CF010296F9
:1005D0002C0108958CE094E9F3CF1B9B03C004B673
:1005E00000FC06C0EDE7FAE3E491EF3F09F0F0C04C
:1005F00088E18093600087E080936000239A88EB15
:100600009BE0E0E9F1E03197F1F70197D1F723980A
:100610008AE580930F018FEF8093000180916C0039
:10062000806480936C008091680082608093680091
:10063000219A34E7632E34E0732E312C512C412C57
:10064000C5EDD4E184E693B1987409F084E6815055
:1006500041F41092130110920C0120EC622E23E061
:10066000722ED99BA4C099DE82E08BBBA89522E0B4
:1006700032120CC0E0E8FAE3E058F10983E080931D
:100680005700E8953097C1F7512C412C832D8034C9
:1006900009F091C0F2013297E0388AE3F80720F4BC
:1006A00085E080935700E895312C809112018350AA
:1006B00087FD2FC090910D019D3221F5883011F5F5
:1006C0008091170193EC909301019AE590930F01AB
:1006D00090911801807609F4A5C0712C91117CC00D
:1006E00084E89AE3909311018093100186E0909141
:1006F0001E01911105C090911D01981708F4892FD2
:10070000809300011092120180911701807609F008
:10071000712C80910F0184FF30C0809100018F3FC8
:1007200061F1C82F893008F0C8E0982F9C1B909386
:1007300000019091010128E89227909301018823FC
:1007400081F0E0911001F0911101A2E0B1E08C2F55
:1007500094919D9331968150D9F7F0931101E093D4
:1007600010016C2F82E091E002DECC5FCC3019F0FA
:100770008FEF80930001C0930F01C30101963C01EC
:10078000803B24E0920729F4EDE7FAE3E491EF3FA0
:10079000C1F48C7409F481C02998D99B51CF8CE1A4
:1007A0001B9B8CE18150E1F782E08BBB49CF219705
:1007B00009F049CF5BCF843009F076CFCD2B09F01B
:1007C00074CF2198299814B81092680010926C0088
:1007D00084B78EBB14BEA3CD913079F4411451047B
:1007E00011F480E084CF80911B018078482E5090D6
:1007F0001C0181E187BFE895F4CF933081F48091AB
:10080000190190911A01D4DE80911B0190911C0175
:10081000CFDE842D8F7729F790E4392E68CF9F7330
:10082000392EDFCF2091190110920A0191110AC0CF
:1008300010920B012AE031E082E030931101209305
:10084000100155CF953029F4209313012AE031E0AF
:10085000F4CF963091F480911A01813041F48CE903
:100860009AE3909311018093100182E140CF82308E
:1008700009F0B7CF8AE89AE3F4CF983051F0993075
:1008800019F420931501E2CF81E09A30F9F280E06B
:10089000DDCF25E131E081E0D0CF299A7ECF85B14F
:1008A00015B884B18FEF84B98AEF90E02ADC84B167
:1008B00014B88AEF90E025DCF89469DC98DCEFDC72
:1008C0001BDD8DE79AE338DC29DD90E080E00895B8
:0408D000F894FFCFCA
:040000030000008079
:00000001FF
