:1000000003C003C003C003C003C003C003C003C0D8
:100080000EC025C024C023C022C021C020C01FC074
:100090001EC01DC01CC01BC01AC019C018C0000063
:1000A0000000000000000000000000000000000050
:1000B000000000000000000000000000000011240B
:1000C0001FBECFE5D2E0DEBFCDBF04D41CC4D8CF65
:1000D000009709F40895EDE1F0E13197F1F7019708
:1000E000F7CF807C9B01205C3F4FDB01FC01E61BCE
:1000F000F70BEA0FFB1F459154914D935D93A217A7
:10010000B307A1F70895FC01E07C93E090935700BA
:10011000E89507B600FCFDCF0895CF93DF939B01D0
:10012000205C3F4FDB01FC01E61BF70BEA0FFB1FD6
:10013000CD91DD9141E00E0140935700E8951124E7
:10014000A217B30781F725E0FC0120935700E8953B
:1001500007B600FCFDCFDF91CF910895CF93DF93D9
:10016000CDB7DEB7C054D1090FB6F894DEBF0FBECD
:10017000CDBFBE016F5F7F4F90E080E0B2DFFE0138
:100180003196CE018F5B9F4F2FEF3FEF219331933D
:10019000E817F907C9F790E080E0B5DFBE016F5FAF
:1001A0007F4F90E080E0B9DFC05CDF4F0FB6F8947E
:1001B000DEBF0FBECDBFDF91CF910895EF92FF92CA
:1001C0000F931F93CF93DF93CDB7DEB7C054D10900
:1001D0000FB6F894DEBF0FBECDBF10E000E045E0E3
:1001E000083E140774F0C05CDF4F0FB6F894DEBF12
:1001F0000FBECDBFDF91CF911F910F91FF90EF9078
:10020000089530E020E0F801E451FD4FE20FF31FC4
:10021000C9018E7F48E0E43DF407ECF44591549128
:1002200061E070E06C0F7D1F860F971FFC0151830A
:1002300040832E5F3F4F2034310529F77801F6EED9
:10024000FF1AC70160DFBE016F5F7F4FC70165DF27
:10025000005C1F4FC4CF41E050E04C0F5D1F840F86
:10026000951F4FEF5FEFE2CF0F931F93CF93DF9375
:10027000CDB7DEB7C054D1090FB6F894DEBF0FBEBC
:10028000CDBFFE013196CE018F5B9F4F8F012FEFC7
:100290003CEC21933193E817F907C9F790E080E02F
:1002A00032DFB80190E080E038DFC05CDF4F0FB68E
:1002B000F894DEBF0FBECDBFDF91CF911F910F919C
:1002C0000895CF9387B3836087BBC198CAEF81E05D
:1002D00090E0FEDEC19A81E090E0FADEC198C15064
:1002E000B1F7CF910895F0E0E0E0099415C019FA54
:1002F0004005930B0902120001010080320904003D
:1003000000000000000012011001FF000008D016DC
:10031000530705020000000111241FBECFE5D2E003
:10032000CDBFDEBF20E0A0E6B0E001C01D92AC383A
:10033000B207E1F78DC1DC0180E090E041E050EAD6
:10034000609530E009C02D9182279795879510F030
:1003500084279527305EC8F36F5FA8F38D939D9334
:100360000895CF93DF93CC27C395B39BE9F7B39B55
:100370000BC0B39B09C0B39B07C0B39B05C0B39B25
:1003800003C0B39B01C0D1C00F920F90C0916E000B
:10039000DD27CA58DF4F012EB39B03C00F920F9089
:1003A000E6CF0F930F910F930F912FEF4F6F06B37F
:1003B00003FB20F90F930F9150E03BE065C016B3AB
:1003C0000126502953FDC89556B3012703FB25F993
:1003D0002F7306B3B1F05027102713FB26F906B28E
:1003E0002230F0F000C016B3012703FB27F90126E5
:1003F000502906B22430E8F54F77206816B3000084
:10040000F6CF50274F7D206206B2102F000000C0AB
:1004100006B300265029102713FB26F906B2E2CFB7
:100420004F7B06B3206400C0DACF01265029187133
:1004300006B269F14E7F2160012F16B328C0002655
:1004400050294D7F06B22260102F29C00126502965
:100450004B7F06B22460012F2DC016B30126502910
:10046000477F2860000006B22EC04F7E06B3206191
:1004700030C0422706B3499300265029102706B200
:100480004FEF13FB20F9297F16B379F2187159F158
:100490000126502906B2012703FB21F9237F06B369
:1004A00071F2002650293150D0F006B2102713FB0C
:1004B00022F9277E16B351F201265029012703FBAA
:1004C00006B223F92F7C49F2000006B3102713FB74
:1004D00024F90026502906B22F7939F270CF10E2A4
:1004E0001ABF00271DC03B503195C31BD04010E2FE
:1004F0001ABF0881033CE1F00B34D1F020916C006D
:100500001981110F1213EDCF093609F10D3211F0D7
:10051000013E39F7CAE01AB715FD02C0CA95D9F7EE
:1005200000937400CAB7C5FD1FCFDF91CF91089526
:10053000209174002223B1F3109172001123F1F481
:100540003430F2F03093720020936D0019C00091A6
:10055000720001309CF40AE530916F0034FD11C047
:1005600000936F00C1E6D0E010C0052710E000C086
:1005700021C0052710E0C89508BB14C03AE501C0AA
:1005800032ED032EC0E0D0E032E017B31861C39A19
:1005900008B317BB58E120E84FEF20FF052708BB41
:1005A000279517951C3F28F700004552B0F720FF0C
:1005B0000527279508BB17951C3FB8F629913A9552
:1005C00061F7077E10917300110F08BBC250D04035
:1005D00011F010936C0010E21ABF086017B3177E79
:1005E000402F477E54E05A95F1F708BB17BB48BB34
:1005F00099CFB39BFECF07D006D001D000D09B5A35
:1006000071B7791B71BF6FEF80E29927669576B35A
:100610007029809674FB67F906B203FE6623B1F772
:100620000895F201309789F02AEF421629E1520627
:1006300011F481B790E021E00C0120935700E89578
:100640001124CF0102962C0108958FEF9CECF3CF7B
:10065000EAEFF9E1E491EF3F11F0E1BF000088E13A
:1006600081BD87E081BDBB9A88EB9BE0ECE9F1E0BE
:100670003197F1F70197D1F7BB988AE580936F0026
:100680008FEF80936000AC9A8BB780628BBF712C28
:10069000312C512C412CCCE7D5E114E686B388717E
:1006A00009F014E6115029F41092730010926C00B6
:1006B000A0DF0AB605FE9CC054DE80E28ABFA89582
:1006C00022E032120CC0E0E0FAE1E054F10983E0EC
:1006D00080935700E8953097C1F7512C412C832D1A
:1006E000803409F089C0F2013297E1158AE1F807F8
:1006F00020F485E080935700E895312C80917200BA
:10070000835087FD2BC090916D009D3229F5883074
:1007100019F583EC809361008AE580936F008091E6
:100720007700807690917800882309F498C0712C26
:1007300091116FC082E09AE19093710080937000F4
:1007400086E090917E00911105C090917D009817F0
:1007500008F4892F809360001092720080916F00DE
:1007600084FF30C0809160008F3F61F1C82F8930D5
:1007700008F0C8E0982F9C1B909360009091610056
:1007800028E8922790936100882381F0E09170001F
:10079000F0917100A2E6B0E08C2F94919D93319678
:1007A0008150D9F7F0937100E09370006C2F82E6CE
:1007B00090E0C1DDCC5FCC3019F08FEF809360000A
:1007C000C0936F00C30101963C01803B944029F423
:1007D000EDEFF9E1E491EF3FA9F40AB605FE5BCF36
:1007E0008DE1B39B8DE18150E1F780E28ABF53CF69
:1007F000219709F053CF63CF843009F07ECFCD2B02
:1008000009F07CCF17BA1BBE15BA84B781BB14BEE2
:100810006BCD913079F44114510411F480E091CF03
:1008200080917B00807C482E50907C0081E187BFC6
:10083000E895F4CF933081F48091790090917A001B
:10084000F0DE80917B0090917C00EBDE842D8F7335
:1008500029F790E4392E75CF9F73392EDFCF209181
:10086000790010926A0091110AC010926B002AE67A
:1008700030E082E0309371002093700062CF9530B9
:1008800029F4209373002AE630E0F4CF963091F4F7
:1008900080917A00813041F48AE19AE1909371006D
:1008A0008093700082E14DCF823009F0B7CF88E0AD
:1008B0009AE1F4CF983051F0993019F420937500F3
:1008C000E2CF81E09A30F9F280E0DDCF25E730E039
:1008D00081E0D0CF88B318BA87B38FEF87BB8AEF98
:1008E00090E0F6DB87B317BA8AEF90E0F1DBF8947B
:1008F00035DC64DCB9DCE5DC8DEF99E104DCF3DCAC
:0A09000090E080E00895F894FFCF26
:040000030000008079
:00000001FF
