:1000000003C003C003C003C003C003C003C003C0D8
:100080000EC025C024C023C022C021C020C01FC074
:100090001EC01DC01CC01BC01AC019C018C0000063
:1000A0000000000000000000000000000000000050
:1000B000000000000000000000000000000011240B
:1000C0001FBECFE5D2E0DEBFCDBF40D458C4D8CFED
:1000D000009709F40895EDE1F0E13197F1F7019708
:1000E000F7CF807C9B01205C3F4FDB01FC01E61BCE
:1000F000F70BEA0FFB1F459154914D935D93A217A7
:10010000B307A1F70895FC01E07C93E090935700BA
:10011000E89507B600FCFDCF0895CF93DF939B01D0
:10012000205C3F4FDB01FC01E61BF70BEA0FFB1FD6
:10013000CD91DD9141E00E0140935700E8951124E7
:10014000A217B30781F725E0FC0120935700E8953B
:1001500007B600FCFDCFDF91CF910895CF93DF93D9
:10016000CDB7DEB7C054D1090FB6F894DEBF0FBECD
:10017000CDBFBE016F5F7F4F90E080E0B2DFFE0138
:100180003196CE018F5B9F4F2FEF3FEF219331933D
:10019000E817F907C9F790E080E0B5DFBE016F5FAF
:1001A0007F4F90E080E0B9DFC05CDF4F0FB6F8947E
:1001B000DEBF0FBECDBFDF91CF910895EF92FF92CA
:1001C0000F931F93CF93DF93CDB7DEB7C054D10900
:1001D0000FB6F894DEBF0FBECDBF10E000E046E0E2
:1001E0000C35140774F0C05CDF4F0FB6F894DEBF17
:1001F0000FBECDBFDF91CF911F910F91FF90EF9078
:10020000089530E020E0F801E051FD4FE20FF31FC8
:10021000C9018E7F49E0EC34F407FCF44591549118
:1002200061E070E06C0F7D1F860F971FFC0151830A
:1002300040832E5F3F4F2034310529F77801F0E8E5
:10024000EF1AF6EEFF0AC7015EDFBE016F5F7F4F58
:10025000C70163DF005C1F4FC2CF41E050E04C0F8D
:100260005D1F840F951F4FEF5FEFE0CF0F931F933C
:10027000CF93DF93CDB7DEB7C054D1090FB6F89452
:10028000DEBF0FBECDBFFE013196CE018F5B9F4F0B
:100290008F012FEB3CEC21933193E817F907C9F755
:1002A00090E080E030DFB80190E080E036DFC05CB5
:1002B000DF4F0FB6F894DEBF0FBECDBFDF91CF91F9
:1002C0001F910F910895CF9387B3836087BBC19827
:1002D000CAEF81E090E0FCDEC19A81E090E0F8DEB8
:1002E000C198C150B1F7CF910895F0E0E0E00994D2
:1002F00017C0197A4005930B090212000101008012
:100300003209040000000000000012011001FF008B
:100310000008D01653070502000000010403090479
:1003200011241FBECFE5D2E0CDBFDEBF20E0A0E6A6
:10033000B0E001C01D92AC38B207E1F7BAC1A82FF6
:10034000B92F80E090E041E050EA609530E009C0CC
:100350002D9182279795879510F084279527305EF9
:10036000C8F36F5FA8F30895EADF8D939D93089516
:10037000CF93CFB7CF93C395B39BE9F7B39B0BC094
:10038000B39B09C0B39B07C0B39B05C0B39B03C01D
:10039000B39B01C0D9C00F92DF93C0916E00DD27DF
:1003A000CA58DF4F012EB39B03C0DF910F90E6CFF9
:1003B0002F930F931F934F932FEF4F6F06B303FBB2
:1003C00020F95F933F9350E03BE065C016B30126F0
:1003D000502953FDC89556B3012703FB25F92F7308
:1003E00006B3B1F05027102713FB26F906B22230CE
:1003F000F0F000C016B3012703FB27F901265029AE
:1004000006B22430E8F54F77206816B30000F6CF27
:1004100050274F7D206206B2102F000000C006B3A7
:1004200000265029102713FB26F906B2E2CF4F7B96
:1004300006B3206400C0DACF01265029187106B235
:1004400069F14E7F2160012F16B328C00026502984
:100450004D7F06B22260102F29C0012650294B7F04
:1004600006B22460012F2DC016B301265029477F04
:100470002860000006B22EC04F7E06B3206130C057
:10048000422706B3499300265029102706B24FEFA2
:1004900013FB20F9297F16B379F2187159F101265F
:1004A000502906B2012703FB21F9237F06B371F21D
:1004B000002650293150D0F006B2102713FB22F944
:1004C000277E16B351F201265029012703FB06B2FD
:1004D00023F92F7C49F2000006B3102713FB24F9FF
:1004E0000026502906B22F7939F270CF10E21ABFD8
:1004F00000271DC03B503195C31BD04010E21ABFEE
:100500000881033C29F10B3419F120916C00198109
:10051000110F1213EDCF093651F10D3211F0013EDA
:1005200039F7CAE01AB715FD02C0CA95D9F700938A
:1005300074003F915F914F911F910F912F91DF9127
:100540000F90CAB7C5FD17CFCF91CFBFCF910895F8
:1005500020917400222369F3109172001123F1F4A9
:100560003430F2F03093720020936D0019C0009186
:10057000720001309CF40AE530916F0034FD11C027
:1005800000936F00C1E6D0E010C0052710E000C066
:1005900021C0052710E0C89508BB14C03AE501C08A
:1005A00032ED032EC0E0D0E032E017B31861C39AF9
:1005B00008B317BB58E120E84FEF20FF052708BB21
:1005C000279517951C3F28F700004552B0F720FFEC
:1005D0000527279508BB17951C3FB8F629913A9532
:1005E00061F7077E10917300110F08BBC250D04015
:1005F00011F010936C0010E21ABF086017B3177E59
:10060000402F477E54E05A95F1F708BB17BB48BB13
:1006100090CF2FEFB0E8A0E04AE0B1BF000081EE3C
:100620009CE0B399FECFB39BFECF0197B399FDCF6A
:1006300097FF03C0BA1B819501C0BA0FA69539F484
:10064000A0E428F4281710F031B7282FA1E041507A
:1006500021F731BF00000895F201309789F02AE7B1
:10066000421629E1520611F481B790E021E00C0115
:1006700020935700E8951124CF0102962C0108958C
:100680008FEB9CECF3CFBB9A2FE28BE19FE02150E4
:1006900080409040E1F700C00000BB988AE580935D
:1006A0006F008FEF80936000AC9A8BB780628BBF36
:1006B0000895EAE7F9E1E491EF3F11F0E1BF0000AE
:1006C00004B600FC06C0EDE7F9E1E491EF3F09F064
:1006D000CEC088E181BD87E081BDD5DF28E8622EEC
:1006E00024E0722E312C512C412CD0E00CE715E186
:1006F00084E696B3987139F084E6DD2321F089DF32
:10070000712C84E6D0E0815029F41092730010928D
:100710006C00D1E00AB605FE9CC02ADE80E28ABFEA
:10072000A89522E032120CC0E0E8F9E1E054F109AA
:1007300083E080935700E8953097C1F7512C412C06
:10074000832D803409F08AC0F2013297E03889E1C4
:10075000F80720F485E080935700E895312C8091CC
:100760007200835087FD2BC090916D009D3229F55A
:10077000883019F583EC809361008AE580936F00DF
:1007800080917700807690917800882309F497C053
:10079000712C91116EC082E899E190937100809361
:1007A000700086E090917E00911105C090917D00CF
:1007B000981708F4892F809360001092720080913E
:1007C0006F0084FF30C0809160008F3F61F1C82FBF
:1007D000893008F0C8E0982F9C1B9093600090919E
:1007E000610028E8922790936100882381F0E091CE
:1007F0007000F0917100A2E6B0E08C2F94919D936F
:1008000031968150D9F7F0937100E09370006C2F0E
:1008100082E690E0A9DDCC5FCC3019F08FEF8093B9
:100820006000C0936F00C30101963C01803B94407F
:1008300029F4EDE7F9E1E491EF3FB1F40AB605FEE2
:1008400055CF8DE1B39B8DE18150E1F780E28ABF06
:100850004DCF0150110909F04CCF62CF843009F01F
:100860007DCF012B09F07BCF0EDF1BBE15BA3ECD2D
:10087000FFCF913079F44114510411F480E092CF0C
:1008800080917B00807C482E50907C0081E187BF66
:10089000E895F4CF933081F48091790090917A00BB
:1008A000DBDE80917B0090917C00D6DE842D8F73FF
:1008B00029F790E4392E76CF9F73392EDFCF209120
:1008C000790010926A0091110AC010926B002AE61A
:1008D00030E082E0309371002093700063CF953058
:1008E00029F4209373002AE630E0F4CF9630F1F437
:1008F00080917A00813041F48AE999E19093710006
:100900008093700082E14ECF823019F488E899E13B
:10091000F5CF833009F0B2CF2111B0CF8CEA99E145
:10092000909371008093700084E03CCF983051F038
:10093000993019F420937500D6CF81E09A3099F25E
:1009400080E0D1CF25E730E081E0C4CF88B318BA8A
:1009500087B38FEF87BB8AEF90E0BADB87B317BA14
:100960008AEF90E0B5DBF894F9DB28DC7FDCABDCC8
:100970008DE799E1C8DBB9DC90E080E00895F89458
:02098000FFCFA7
:040000030000008079
:00000001FF
