:1000000003C003C003C003C003C003C003C003C0D8
:100080000EC025C024C023C022C021C020C01FC074
:100090001EC01DC01CC01BC01AC019C018C0000063
:1000A0000000000000000000000000000000000050
:1000B000000000000000000000000000000011240B
:1000C0001FBECFE5D2E0DEBFCDBFBCD3D4C3D8CFF7
:1000D000009709F40895E0EAFFE03197F1F70197FE
:1000E000F7CF807C9B01205C3F4FDB01FC01E61BCE
:1000F000F70BEA0FFB1F459154914D935D93A217A7
:10010000B307A1F70895FC01E07C93E090935700BA
:10011000E89507B600FCFDCF0895CF93DF939B01D0
:10012000205C3F4FDB01FC01E61BF70BEA0FFB1FD6
:10013000CD91DD9141E00E0140935700E8951124E7
:10014000A217B30781F725E0FC0120935700E8953B
:1001500007B600FCFDCFDF91CF910895CF93DF93D9
:10016000CDB7DEB7C054D1090FB6F894DEBF0FBECD
:10017000CDBFBE016F5F7F4F90E080E0B2DFFE0138
:100180003196CE018F5B9F4F2FEF3FEF219331933D
:10019000E817F907C9F790E080E0B5DFBE016F5FAF
:1001A0007F4F90E080E0B9DFC05CDF4F0FB6F8947E
:1001B000DEBF0FBECDBFDF91CF910895EF92FF92CA
:1001C0000F931F93CF93DF93CDB7DEB7C054D10900
:1001D0000FB6F894DEBF0FBECDBF10E000E045E0E3
:1001E0000435140774F0C05CDF4F0FB6F894DEBF1F
:1001F0000FBECDBFDF91CF911F910F91FF90EF9078
:10020000089530E020E0F801E051FD4FE20FF31FC8
:10021000C9018E7F48E0E434F407FCF44591549121
:1002200061E070E06C0F7D1F860F971FFC0151830A
:1002300040832E5F3F4F2034310529F77801F0E8E5
:10024000EF1AF5EEFF0AC7015EDFBE016F5F7F4F59
:10025000C70163DF005C1F4FC2CF41E050E04C0F8D
:100260005D1F840F951F4FEF5FEFE0CF0F931F933C
:10027000CF93DF93CDB7DEB7C054D1090FB6F89452
:10028000DEBF0FBECDBFFE013196CE018F5B9F4F0B
:100290008F012FE33DEC21933193E817F907C9F75C
:1002A00090E080E030DFB80190E080E036DFC05CB5
:1002B000DF4F0FB6F894DEBF0FBECDBFDF91CF91F9
:1002C0001F910F910895CF9387B3836087BBC19827
:1002D000CAEF81E090E0FCDEC19A81E090E0F8DEB8
:1002E000C198C150B1F7CF910895F0E0E0E00994D2
:1002F00015C01A7C4005930B090212000101008011
:100300003209040000000000000012011001FF008B
:100310000008D01653070502000000011124CFE5A4
:10032000D2E0CDBFDEBF20E0A0E6B0E001C01D926C
:10033000AC38B207E1F74EC1DC0180E090E041E06B
:1003400050EA609530E009C02D91822797958795F6
:1003500010F084279527305EC8F36F5FA8F38D9364
:100360009D930895C395B39BE9F7B39B0BC0B39BD3
:1003700009C0B39B07C0B39B05C0B39B03C0B39B2D
:1003800001C089C00F92C0916E00DD27CA58DF4FAF
:100390000F9065E5B39B03C00F920F90E6CF0F93CC
:1003A0000F910F9320E040E10F9106B3087103FB1A
:1003B00027F93F9350E03BE039C0187140642F7734
:1003C000012F5F5F1EC0406816B318712F7752501F
:1003D0001FC0406406B32F770871D1F15F5F00C082
:1003E00023C0406216B32F77187191F15F5F00C090
:1003F00025C008711027515012F45D5F00001150A4
:1004000027952C3F16B3C8F6187101270150279580
:100410002C3FC8F64227499306B3087110274F7343
:10042000115027952C3FA8F64695469516B318719E
:1004300079F00127015027952C3F98F66B5A60F30D
:10044000315006B3B0F600C010E21ABF00271DC03D
:100450003B503195C31BD04010E21ABF0881033CCA
:10046000D9F00B34C9F020916C001981110F1213CF
:10047000EDCF093601F10D3211F0013E39F7CAE036
:100480001AB715FD02C0CA95D9F7009374003F91C1
:10049000CAB7C5FD67CF0895209174002223B9F330
:1004A00010917200112309F534300AF13093720073
:1004B00020936D001CC0009172000130B4F40AE575
:1004C00030916F0034FD14C000936F00C1E6D0E09E
:1004D00013C0052710E000C0000008BB1AC00527A4
:1004E00010E0221F1DC010E021C04AE502C032ED1D
:1004F000432FC4E1D0E032E017B31861C39A08B3C8
:1005000017BB58E120E865E320FF052708BB2795C6
:1005100017951C3FF0F66695B8F7B1F720FF052751
:1005200008BB279517951C3FD0F62795179517FF01
:10053000052700001C3F08BBB0F629913A9519F732
:10054000077E10917300110FC651D04008BB11F007
:1005500010936C0010E21ABF086017B3177E402F8B
:10056000477E54E05A95F1F708BB17BB48BB8FCFC5
:100570002FEFB0E8A0E04AE0B1BF00008DE79CE0BB
:10058000B399FECFB39BFECF0197B399FDCF97FFF1
:1005900003C0BA1B819501C0BA0FA69539F4A0E437
:1005A00028F4281710F031B7282FA1E0415021F787
:1005B00031BF00000895F201309711F48FE39DECF4
:1005C00021E00C0120935700E8951124CF010296F9
:1005D0002C01089588E181BD87E081BDBB9A88EB3D
:1005E0009BE0E0E9F1E03197F1F70197D1F7BB9893
:1005F0008AE580936F008FEF80936000AC9A8BB791
:1006000080628BBF712C312C512C412CC5EDD4E173
:1006100014E686B3887109F014E6115029F410929B
:10062000730010926C00A4DF0AB605FE9CC09ADE2F
:1006300080E28ABFA89522E032120CC0E0E8FAE11D
:10064000E054F10983E080935700E8953097C1F7B3
:10065000512C412C832D803409F089C0F20132974E
:10066000E0388AE1F80720F485E080935700E895A8
:10067000312C80917200835087FD2BC090916D00CA
:100680009D3229F5883019F583EC809361008AE565
:1006900080936F0080917700807690917800882316
:1006A00009F495C0712C91116CC082E89AE1909385
:1006B00071008093700086E090917E00911105C0DA
:1006C00090917D00981708F4892F80936000109214
:1006D000720080916F0084FF30C0809160008F3F76
:1006E00061F1C82F893008F0C8E0982F9C1B9093C7
:1006F00060009091610028E8922790936100882320
:1007000081F0E0917000F0917100A2E6B0E08C2FD2
:1007100094919D9331968150D9F7F0937100E093B5
:1007200070006C2F82E690E007DECC5FCC3019F0D1
:100730008FEF80936000C0936F00C30101963C016E
:10074000803B944029F4EDE7FAE1E491EF3FA9F40E
:100750000AB605FE5BCF8CE1B39B8CE18150E1F7DB
:1007600080E28ABF53CF219709F053CF63CF843003
:1007700009F07ECFCD2B09F07CCF17BA1BBE15BA7E
:10078000B5CD913079F44114510411F480E094CF47
:1007900080917B00807C482E50907C0081E187BF57
:1007A000E895F4CF933081F48091790090917A00AC
:1007B00002DF80917B0090917C00FDDE842D8F73A1
:1007C00029F790E4392E78CF9F73392EDFCF20910F
:1007D000790010926A0091110AC010926B002AE60B
:1007E00030E082E0309371002093700065CF953047
:1007F00029F4209373002AE630E0F4CF963091F488
:1008000080917A00813041F48AE99AE190937100F5
:100810008093700082E150CF823009F0B7CF88E832
:100820009AE1F4CF983051F0993019F42093750083
:10083000E2CF81E09A30F9F280E0DDCF25E730E0C9
:1008400081E0D0CF88B318BA87B38FEF87BB8AEF28
:1008500090E03EDC87B317BA8AEF90E039DCF89479
:100860007DDCACDC03DD2FDD8DE79AE14CDC3DDD8A
:0A08700090E080E00895F894FFCFB7
:040000030000008079
:00000001FF
